{
  "contractName": "BeerVending",
  "abi": [
    {
      "inputs": [],
      "stateMutability": "nonpayable",
      "type": "constructor"
    },
    {
      "anonymous": false,
      "inputs": [
        {
          "indexed": false,
          "internalType": "uint256",
          "name": "idProdutoCriado",
          "type": "uint256"
        },
        {
          "indexed": false,
          "internalType": "string",
          "name": "nomeProdutoCriado",
          "type": "string"
        },
        {
          "indexed": false,
          "internalType": "uint256",
          "name": "precoProdutoCriado",
          "type": "uint256"
        },
        {
          "indexed": false,
          "internalType": "address payable",
          "name": "owner",
          "type": "address"
        },
        {
          "indexed": false,
          "internalType": "bool",
          "name": "vendido",
          "type": "bool"
        }
      ],
      "name": "ProdutoCriado",
      "type": "event"
    },
    {
      "anonymous": false,
      "inputs": [
        {
          "indexed": false,
          "internalType": "uint256",
          "name": "idProdutoVendido",
          "type": "uint256"
        },
        {
          "indexed": false,
          "internalType": "string",
          "name": "nomeProdutoVendido",
          "type": "string"
        },
        {
          "indexed": false,
          "internalType": "uint256",
          "name": "precoProdutoVendido",
          "type": "uint256"
        },
        {
          "indexed": false,
          "internalType": "address payable",
          "name": "owner",
          "type": "address"
        },
        {
          "indexed": false,
          "internalType": "bool",
          "name": "vendido",
          "type": "bool"
        }
      ],
      "name": "ProdutoVendido",
      "type": "event"
    },
    {
      "inputs": [],
      "name": "nomeAplicacao",
      "outputs": [
        {
          "internalType": "string",
          "name": "",
          "type": "string"
        }
      ],
      "stateMutability": "view",
      "type": "function"
    },
    {
      "inputs": [
        {
          "internalType": "uint256",
          "name": "",
          "type": "uint256"
        }
      ],
      "name": "produtos",
      "outputs": [
        {
          "internalType": "uint256",
          "name": "idProduto",
          "type": "uint256"
        },
        {
          "internalType": "string",
          "name": "nomeProduto",
          "type": "string"
        },
        {
          "internalType": "uint256",
          "name": "preco",
          "type": "uint256"
        },
        {
          "internalType": "address payable",
          "name": "owner",
          "type": "address"
        },
        {
          "internalType": "bool",
          "name": "vendido",
          "type": "bool"
        }
      ],
      "stateMutability": "view",
      "type": "function"
    },
    {
      "inputs": [],
      "name": "qtdProduto",
      "outputs": [
        {
          "internalType": "uint256",
          "name": "",
          "type": "uint256"
        }
      ],
      "stateMutability": "view",
      "type": "function"
    },
    {
      "inputs": [
        {
          "internalType": "string",
          "name": "_nome",
          "type": "string"
        },
        {
          "internalType": "uint256",
          "name": "_preco",
          "type": "uint256"
        }
      ],
      "name": "criarProduto",
      "outputs": [],
      "stateMutability": "nonpayable",
      "type": "function"
    },
    {
      "inputs": [
        {
          "internalType": "uint256",
          "name": "_id",
          "type": "uint256"
        }
      ],
      "name": "comprarProduto",
      "outputs": [],
      "stateMutability": "payable",
      "type": "function"
    }
  ],
  "bytecode": "0x608060405260006001553480156200001657600080fd5b506040518060400160405280601181526020017f644150502042454552204d414348494e45000000000000000000000000000000815250600090816200005d9190620002de565b50620003c5565b600081519050919050565b7f4e487b7100000000000000000000000000000000000000000000000000000000600052604160045260246000fd5b7f4e487b7100000000000000000000000000000000000000000000000000000000600052602260045260246000fd5b60006002820490506001821680620000e657607f821691505b602082108103620000fc57620000fb6200009e565b5b50919050565b60008190508160005260206000209050919050565b60006020601f8301049050919050565b600082821b905092915050565b600060088302620001667fffffffffffffffffffffffffffffffffffffffffffffffffffffffffffffffff8262000127565b62000172868362000127565b95508019841693508086168417925050509392505050565b6000819050919050565b6000819050919050565b6000620001bf620001b9620001b3846200018a565b62000194565b6200018a565b9050919050565b6000819050919050565b620001db836200019e565b620001f3620001ea82620001c6565b84845462000134565b825550505050565b600090565b6200020a620001fb565b62000217818484620001d0565b505050565b5b818110156200023f576200023360008262000200565b6001810190506200021d565b5050565b601f8211156200028e57620002588162000102565b620002638462000117565b8101602085101562000273578190505b6200028b620002828562000117565b8301826200021c565b50505b505050565b600082821c905092915050565b6000620002b36000198460080262000293565b1980831691505092915050565b6000620002ce8383620002a0565b9150826002028217905092915050565b620002e98262000064565b67ffffffffffffffff8111156200030557620003046200006f565b5b620003118254620000cd565b6200031e82828562000243565b600060209050601f83116001811462000356576000841562000341578287015190505b6200034d8582620002c0565b865550620003bd565b601f198416620003668662000102565b60005b82811015620003905784890151825560018201915060208501945060208101905062000369565b86831015620003b05784890151620003ac601f891682620002a0565b8355505b6001600288020188555050505b505050505050565b610fa880620003d56000396000f3fe60806040526004361061004a5760003560e01c8063267054b71461004f5780634e698a9a1461006b5780634e7280be14610096578063934e88ba146100bf578063f4e595de146100ea575b600080fd5b61006960048036038101906100649190610809565b61012b565b005b34801561007757600080fd5b5061008061046f565b60405161008d9190610845565b60405180910390f35b3480156100a257600080fd5b506100bd60048036038101906100b891906109a6565b610475565b005b3480156100cb57600080fd5b506100d4610646565b6040516100e19190610a81565b60405180910390f35b3480156100f657600080fd5b50610111600480360381019061010c9190610809565b6106d4565b604051610122959493929190610aff565b60405180910390f35b6000600260008381526020019081526020016000206040518060a00160405290816000820154815260200160018201805461016590610b88565b80601f016020809104026020016040519081016040528092919081815260200182805461019190610b88565b80156101de5780601f106101b3576101008083540402835291602001916101de565b820191906000526020600020905b8154815290600101906020018083116101c157829003601f168201915b50505050508152602001600282015481526020016003820160009054906101000a900473ffffffffffffffffffffffffffffffffffffffff1673ffffffffffffffffffffffffffffffffffffffff1673ffffffffffffffffffffffffffffffffffffffff1681526020016003820160149054906101000a900460ff1615151515815250509050600081606001519050600082600001511180156102875750600154826000015111155b61029057600080fd5b81604001513410156102a157600080fd5b8160800151156102b057600080fd5b3373ffffffffffffffffffffffffffffffffffffffff168173ffffffffffffffffffffffffffffffffffffffff16036102e857600080fd5b33826060019073ffffffffffffffffffffffffffffffffffffffff16908173ffffffffffffffffffffffffffffffffffffffff1681525050600182608001901515908115158152505081600260008581526020019081526020016000206000820151816000015560208201518160010190816103649190610d65565b506040820151816002015560608201518160030160006101000a81548173ffffffffffffffffffffffffffffffffffffffff021916908373ffffffffffffffffffffffffffffffffffffffff16021790555060808201518160030160146101000a81548160ff0219169083151502179055509050508073ffffffffffffffffffffffffffffffffffffffff166108fc349081150290604051600060405180830381858888f1935050505015801561041f573d6000803e3d6000fd5b507f4e13f28134ee6e45cafe997fa95ab33b6188a0639c84c20facbe88d667458ecc60015483602001518460400151336001604051610462959493929190610aff565b60405180910390a1505050565b60015481565b60008251116104b9576040517f08c379a00000000000000000000000000000000000000000000000000000000081526004016104b090610e83565b60405180910390fd5b600081116104fc576040517f08c379a00000000000000000000000000000000000000000000000000000000081526004016104f390610eef565b60405180910390fd5b600180600082825461050e9190610f3e565b925050819055506040518060a0016040528060015481526020018381526020018281526020013373ffffffffffffffffffffffffffffffffffffffff1681526020016000151581525060026000600154815260200190815260200160002060008201518160000155602082015181600101908161058b9190610d65565b506040820151816002015560608201518160030160006101000a81548173ffffffffffffffffffffffffffffffffffffffff021916908373ffffffffffffffffffffffffffffffffffffffff16021790555060808201518160030160146101000a81548160ff0219169083151502179055509050507fb78c7a33072ccb65b65a7db326f5d714dca22b5500bebc3b2a4124ec31536134600154838333600060405161063a959493929190610aff565b60405180910390a15050565b6000805461065390610b88565b80601f016020809104026020016040519081016040528092919081815260200182805461067f90610b88565b80156106cc5780601f106106a1576101008083540402835291602001916106cc565b820191906000526020600020905b8154815290600101906020018083116106af57829003601f168201915b505050505081565b60026020528060005260406000206000915090508060000154908060010180546106fd90610b88565b80601f016020809104026020016040519081016040528092919081815260200182805461072990610b88565b80156107765780601f1061074b57610100808354040283529160200191610776565b820191906000526020600020905b81548152906001019060200180831161075957829003601f168201915b5050505050908060020154908060030160009054906101000a900473ffffffffffffffffffffffffffffffffffffffff16908060030160149054906101000a900460ff16905085565b6000604051905090565b600080fd5b600080fd5b6000819050919050565b6107e6816107d3565b81146107f157600080fd5b50565b600081359050610803816107dd565b92915050565b60006020828403121561081f5761081e6107c9565b5b600061082d848285016107f4565b91505092915050565b61083f816107d3565b82525050565b600060208201905061085a6000830184610836565b92915050565b600080fd5b600080fd5b6000601f19601f8301169050919050565b7f4e487b7100000000000000000000000000000000000000000000000000000000600052604160045260246000fd5b6108b38261086a565b810181811067ffffffffffffffff821117156108d2576108d161087b565b5b80604052505050565b60006108e56107bf565b90506108f182826108aa565b919050565b600067ffffffffffffffff8211156109115761091061087b565b5b61091a8261086a565b9050602081019050919050565b82818337600083830152505050565b6000610949610944846108f6565b6108db565b90508281526020810184848401111561096557610964610865565b5b610970848285610927565b509392505050565b600082601f83011261098d5761098c610860565b5b813561099d848260208601610936565b91505092915050565b600080604083850312156109bd576109bc6107c9565b5b600083013567ffffffffffffffff8111156109db576109da6107ce565b5b6109e785828601610978565b92505060206109f8858286016107f4565b9150509250929050565b600081519050919050565b600082825260208201905092915050565b60005b83811015610a3c578082015181840152602081019050610a21565b60008484015250505050565b6000610a5382610a02565b610a5d8185610a0d565b9350610a6d818560208601610a1e565b610a768161086a565b840191505092915050565b60006020820190508181036000830152610a9b8184610a48565b905092915050565b600073ffffffffffffffffffffffffffffffffffffffff82169050919050565b6000610ace82610aa3565b9050919050565b610ade81610ac3565b82525050565b60008115159050919050565b610af981610ae4565b82525050565b600060a082019050610b146000830188610836565b8181036020830152610b268187610a48565b9050610b356040830186610836565b610b426060830185610ad5565b610b4f6080830184610af0565b9695505050505050565b7f4e487b7100000000000000000000000000000000000000000000000000000000600052602260045260246000fd5b60006002820490506001821680610ba057607f821691505b602082108103610bb357610bb2610b59565b5b50919050565b60008190508160005260206000209050919050565b60006020601f8301049050919050565b600082821b905092915050565b600060088302610c1b7fffffffffffffffffffffffffffffffffffffffffffffffffffffffffffffffff82610bde565b610c258683610bde565b95508019841693508086168417925050509392505050565b6000819050919050565b6000610c62610c5d610c58846107d3565b610c3d565b6107d3565b9050919050565b6000819050919050565b610c7c83610c47565b610c90610c8882610c69565b848454610beb565b825550505050565b600090565b610ca5610c98565b610cb0818484610c73565b505050565b5b81811015610cd457610cc9600082610c9d565b600181019050610cb6565b5050565b601f821115610d1957610cea81610bb9565b610cf384610bce565b81016020851015610d02578190505b610d16610d0e85610bce565b830182610cb5565b50505b505050565b600082821c905092915050565b6000610d3c60001984600802610d1e565b1980831691505092915050565b6000610d558383610d2b565b9150826002028217905092915050565b610d6e82610a02565b67ffffffffffffffff811115610d8757610d8661087b565b5b610d918254610b88565b610d9c828285610cd8565b600060209050601f831160018114610dcf5760008415610dbd578287015190505b610dc78582610d49565b865550610e2f565b601f198416610ddd86610bb9565b60005b82811015610e0557848901518255600182019150602085019450602081019050610de0565b86831015610e225784890151610e1e601f891682610d2b565b8355505b6001600288020188555050505b505050505050565b7f4552524f3a204e6f6d6520696e76c3a16c69646f000000000000000000000000600082015250565b6000610e6d601483610a0d565b9150610e7882610e37565b602082019050919050565b60006020820190508181036000830152610e9c81610e60565b9050919050565b7f4552524f3a20707265c3a76f20696e76c3a16c69646f00000000000000000000600082015250565b6000610ed9601683610a0d565b9150610ee482610ea3565b602082019050919050565b60006020820190508181036000830152610f0881610ecc565b9050919050565b7f4e487b7100000000000000000000000000000000000000000000000000000000600052601160045260246000fd5b6000610f49826107d3565b9150610f54836107d3565b9250828201905080821115610f6c57610f6b610f0f565b5b9291505056fea26469706673582212206dd00495b9067cec58d0e73015411e729511c1f8b947018e20902b9807c0ef7e64736f6c63430008100033",
  "immutableReferences": {},
  "source": "// SPDX-License-Identifier: MIT\npragma solidity >=0.4.22 <0.9.0;\n\ncontract BeerVending {\n\n  string public nomeAplicacao;\n  uint public qtdProduto = 0;\n\n  mapping(uint => Produto) public produtos;\n\n  struct Produto {\n    uint idProduto;\n    string nomeProduto;\n    uint preco;\n    address payable owner;\n    bool vendido;\n  }\n\n  event ProdutoCriado(\n    uint idProdutoCriado,\n    string nomeProdutoCriado,\n    uint precoProdutoCriado,\n    address payable owner,\n    bool vendido\n  );\n\n  event ProdutoVendido(\n    uint idProdutoVendido,\n    string nomeProdutoVendido,\n    uint precoProdutoVendido,\n    address payable owner,\n    bool vendido\n  );\n\n  constructor() {\n    nomeAplicacao = \"dAPP BEER MACHINE\";\n  }\n\n  function criarProduto(string memory _nome, uint _preco) public {\n    //verifica se o produto tem nome vlido\n    require(bytes(_nome).length > 0, unicode\"ERRO: Nome invlido\");\n    require(_preco > 0, unicode\"ERRO: preo invlido\");\n\n    qtdProduto += 1; // ou qtdProduto ++;\n\n    produtos[qtdProduto] = Produto(qtdProduto, _nome, _preco, payable(msg.sender), false);\n\n    //chamar evento\n    emit ProdutoCriado(qtdProduto, _nome, _preco, payable(msg.sender), false);\n  }\n\n  function comprarProduto(uint _id) public payable {\n    Produto memory _produto = produtos[_id];\n\n    address payable _vendedor = _produto.owner; // comprador do pdotuto\n\n    require(_produto.idProduto > 0 && _produto.idProduto <= qtdProduto);\n    require(msg.value >= _produto.preco); //tem grana suficinte ?\n    require(!_produto.vendido);//produto ja foi vendido ?\n    require(_vendedor != msg.sender); //comprador no pode ser o vendedor\n\n    _produto.owner = payable(msg.sender); //quem comrpou se torna o dono\n    _produto.vendido = true;\n\n    //atualizar estoque\n    produtos[_id] = _produto;\n\n    //vendedor recebe a grana pelos produto\n    payable(_vendedor).transfer(msg.value);\n\n    emit ProdutoVendido(qtdProduto, _produto.nomeProduto, _produto.preco, payable(msg.sender), true);\n  }\n}\n",
  "sourcePath": "/home/cuerci/Documentos/blockchain/beer-vending-machine/contracts/BeerVending.sol",
  "compiler": {
    "name": "solc",
    "version": "0.8.16+commit.07a7930e.Emscripten.clang"
  },
  "schemaVersion": "3.4.9",
  "updatedAt": "2022-09-01T02:21:09.655Z",
  "devdoc": {
    "kind": "dev",
    "methods": {},
    "version": 1
  },
  "userdoc": {
    "kind": "user",
    "methods": {},
    "version": 1
  }
}